{"abi":[{"type":"constructor","inputs":[{"name":"_neuronToken","type":"address","internalType":"address"},{"name":"_treasury","type":"address","internalType":"address"},{"name":"_initialOperator","type":"address","internalType":"address"}],"stateMutability":"nonpayable"},{"type":"function","name":"addOperator","inputs":[{"name":"_operator","type":"address","internalType":"address"}],"outputs":[],"stateMutability":"nonpayable"},{"type":"function","name":"answerAttempts","inputs":[{"name":"","type":"uint256","internalType":"uint256"},{"name":"","type":"address","internalType":"address"}],"outputs":[{"name":"","type":"uint256","internalType":"uint256"}],"stateMutability":"view"},{"type":"function","name":"burnAllocation","inputs":[{"name":"","type":"address","internalType":"address"}],"outputs":[{"name":"","type":"uint256","internalType":"uint256"}],"stateMutability":"view"},{"type":"function","name":"burnBps","inputs":[],"outputs":[{"name":"","type":"uint16","internalType":"uint16"}],"stateMutability":"view"},{"type":"function","name":"cancelMatch","inputs":[{"name":"matchId","type":"uint256","internalType":"uint256"}],"outputs":[],"stateMutability":"nonpayable"},{"type":"function","name":"claimBurnAllocationFor","inputs":[{"name":"winner","type":"address","internalType":"address"}],"outputs":[],"stateMutability":"nonpayable"},{"type":"function","name":"createMatch","inputs":[{"name":"entryFee","type":"uint256","internalType":"uint256"},{"name":"baseAnswerFee","type":"uint256","internalType":"uint256"},{"name":"queueDuration","type":"uint64","internalType":"uint64"},{"name":"answerDuration","type":"uint64","internalType":"uint64"},{"name":"minPlayers","type":"uint8","internalType":"uint8"},{"name":"maxPlayers","type":"uint8","internalType":"uint8"}],"outputs":[{"name":"matchId","type":"uint256","internalType":"uint256"}],"stateMutability":"nonpayable"},{"type":"function","name":"getCurrentAnswerFee","inputs":[{"name":"matchId","type":"uint256","internalType":"uint256"},{"name":"agent","type":"address","internalType":"address"}],"outputs":[{"name":"","type":"uint256","internalType":"uint256"}],"stateMutability":"view"},{"type":"function","name":"getMatchConfig","inputs":[{"name":"matchId","type":"uint256","internalType":"uint256"}],"outputs":[{"name":"config","type":"tuple","internalType":"struct AxonArena.MatchConfig","components":[{"name":"entryFee","type":"uint256","internalType":"uint256"},{"name":"baseAnswerFee","type":"uint256","internalType":"uint256"},{"name":"queueDeadline","type":"uint64","internalType":"uint64"},{"name":"answerDuration","type":"uint64","internalType":"uint64"},{"name":"minPlayers","type":"uint8","internalType":"uint8"},{"name":"maxPlayers","type":"uint8","internalType":"uint8"}]}],"stateMutability":"view"},{"type":"function","name":"getMatchPlayers","inputs":[{"name":"matchId","type":"uint256","internalType":"uint256"}],"outputs":[{"name":"","type":"address[]","internalType":"address[]"}],"stateMutability":"view"},{"type":"function","name":"getMatchQuestion","inputs":[{"name":"matchId","type":"uint256","internalType":"uint256"}],"outputs":[{"name":"question","type":"tuple","internalType":"struct AxonArena.MatchQuestion","components":[{"name":"questionText","type":"string","internalType":"string"},{"name":"category","type":"string","internalType":"string"},{"name":"formatHint","type":"string","internalType":"string"}]}],"stateMutability":"view"},{"type":"function","name":"getMatchState","inputs":[{"name":"matchId","type":"uint256","internalType":"uint256"}],"outputs":[{"name":"state","type":"tuple","internalType":"struct AxonArena.MatchState","components":[{"name":"pool","type":"uint256","internalType":"uint256"},{"name":"answerDeadline","type":"uint64","internalType":"uint64"},{"name":"phase","type":"uint8","internalType":"enum AxonArena.MatchPhase"},{"name":"difficulty","type":"uint8","internalType":"uint8"},{"name":"winner","type":"address","internalType":"address"},{"name":"answerHash","type":"bytes32","internalType":"bytes32"}]}],"stateMutability":"view"},{"type":"function","name":"getPlayerCount","inputs":[{"name":"matchId","type":"uint256","internalType":"uint256"}],"outputs":[{"name":"","type":"uint256","internalType":"uint256"}],"stateMutability":"view"},{"type":"function","name":"isOperator","inputs":[{"name":"_operator","type":"address","internalType":"address"}],"outputs":[{"name":"","type":"bool","internalType":"bool"}],"stateMutability":"view"},{"type":"function","name":"isPlayerInMatch","inputs":[{"name":"","type":"uint256","internalType":"uint256"},{"name":"","type":"address","internalType":"address"}],"outputs":[{"name":"","type":"bool","internalType":"bool"}],"stateMutability":"view"},{"type":"function","name":"joinQueue","inputs":[{"name":"matchId","type":"uint256","internalType":"uint256"}],"outputs":[],"stateMutability":"payable"},{"type":"function","name":"matchBurnTotal","inputs":[{"name":"","type":"uint256","internalType":"uint256"}],"outputs":[{"name":"","type":"uint256","internalType":"uint256"}],"stateMutability":"view"},{"type":"function","name":"matchConfigs","inputs":[{"name":"","type":"uint256","internalType":"uint256"}],"outputs":[{"name":"entryFee","type":"uint256","internalType":"uint256"},{"name":"baseAnswerFee","type":"uint256","internalType":"uint256"},{"name":"queueDeadline","type":"uint64","internalType":"uint64"},{"name":"answerDuration","type":"uint64","internalType":"uint64"},{"name":"minPlayers","type":"uint8","internalType":"uint8"},{"name":"maxPlayers","type":"uint8","internalType":"uint8"}],"stateMutability":"view"},{"type":"function","name":"matchPlayers","inputs":[{"name":"","type":"uint256","internalType":"uint256"},{"name":"","type":"uint256","internalType":"uint256"}],"outputs":[{"name":"","type":"address","internalType":"address"}],"stateMutability":"view"},{"type":"function","name":"matchQuestions","inputs":[{"name":"","type":"uint256","internalType":"uint256"}],"outputs":[{"name":"questionText","type":"string","internalType":"string"},{"name":"category","type":"string","internalType":"string"},{"name":"formatHint","type":"string","internalType":"string"}],"stateMutability":"view"},{"type":"function","name":"matchStates","inputs":[{"name":"","type":"uint256","internalType":"uint256"}],"outputs":[{"name":"pool","type":"uint256","internalType":"uint256"},{"name":"answerDeadline","type":"uint64","internalType":"uint64"},{"name":"phase","type":"uint8","internalType":"enum AxonArena.MatchPhase"},{"name":"difficulty","type":"uint8","internalType":"uint8"},{"name":"winner","type":"address","internalType":"address"},{"name":"answerHash","type":"bytes32","internalType":"bytes32"}],"stateMutability":"view"},{"type":"function","name":"neuronToken","inputs":[],"outputs":[{"name":"","type":"address","internalType":"contract INeuronToken"}],"stateMutability":"view"},{"type":"function","name":"nextMatchId","inputs":[],"outputs":[{"name":"","type":"uint256","internalType":"uint256"}],"stateMutability":"view"},{"type":"function","name":"operators","inputs":[{"name":"","type":"address","internalType":"address"}],"outputs":[{"name":"","type":"bool","internalType":"bool"}],"stateMutability":"view"},{"type":"function","name":"owner","inputs":[],"outputs":[{"name":"","type":"address","internalType":"address"}],"stateMutability":"view"},{"type":"function","name":"pause","inputs":[],"outputs":[],"stateMutability":"nonpayable"},{"type":"function","name":"paused","inputs":[],"outputs":[{"name":"","type":"bool","internalType":"bool"}],"stateMutability":"view"},{"type":"function","name":"pendingRefunds","inputs":[{"name":"","type":"address","internalType":"address"}],"outputs":[{"name":"","type":"uint256","internalType":"uint256"}],"stateMutability":"view"},{"type":"function","name":"postQuestion","inputs":[{"name":"matchId","type":"uint256","internalType":"uint256"},{"name":"question","type":"string","internalType":"string"},{"name":"category","type":"string","internalType":"string"},{"name":"difficulty","type":"uint8","internalType":"uint8"},{"name":"formatHint","type":"string","internalType":"string"},{"name":"answerHash","type":"bytes32","internalType":"bytes32"}],"outputs":[],"stateMutability":"nonpayable"},{"type":"function","name":"refundMatch","inputs":[{"name":"matchId","type":"uint256","internalType":"uint256"}],"outputs":[],"stateMutability":"nonpayable"},{"type":"function","name":"removeOperator","inputs":[{"name":"_operator","type":"address","internalType":"address"}],"outputs":[],"stateMutability":"nonpayable"},{"type":"function","name":"renounceOwnership","inputs":[],"outputs":[],"stateMutability":"nonpayable"},{"type":"function","name":"revealAnswer","inputs":[{"name":"matchId","type":"uint256","internalType":"uint256"},{"name":"answer","type":"string","internalType":"string"},{"name":"salt","type":"bytes32","internalType":"bytes32"}],"outputs":[],"stateMutability":"nonpayable"},{"type":"function","name":"revealedAnswers","inputs":[{"name":"","type":"uint256","internalType":"uint256"}],"outputs":[{"name":"","type":"string","internalType":"string"}],"stateMutability":"view"},{"type":"function","name":"setSplit","inputs":[{"name":"_winnerBps","type":"uint16","internalType":"uint16"},{"name":"_treasuryBps","type":"uint16","internalType":"uint16"},{"name":"_burnBps","type":"uint16","internalType":"uint16"}],"outputs":[],"stateMutability":"nonpayable"},{"type":"function","name":"setTreasury","inputs":[{"name":"_treasury","type":"address","internalType":"address"}],"outputs":[],"stateMutability":"nonpayable"},{"type":"function","name":"settleWinner","inputs":[{"name":"matchId","type":"uint256","internalType":"uint256"},{"name":"winner","type":"address","internalType":"address"}],"outputs":[],"stateMutability":"nonpayable"},{"type":"function","name":"startAnswerPeriod","inputs":[{"name":"matchId","type":"uint256","internalType":"uint256"}],"outputs":[],"stateMutability":"nonpayable"},{"type":"function","name":"startMatch","inputs":[{"name":"matchId","type":"uint256","internalType":"uint256"}],"outputs":[],"stateMutability":"nonpayable"},{"type":"function","name":"submitAnswer","inputs":[{"name":"matchId","type":"uint256","internalType":"uint256"},{"name":"answer","type":"string","internalType":"string"}],"outputs":[],"stateMutability":"nonpayable"},{"type":"function","name":"transferOwnership","inputs":[{"name":"newOwner","type":"address","internalType":"address"}],"outputs":[],"stateMutability":"nonpayable"},{"type":"function","name":"treasury","inputs":[],"outputs":[{"name":"","type":"address","internalType":"address"}],"stateMutability":"view"},{"type":"function","name":"treasuryBps","inputs":[],"outputs":[{"name":"","type":"uint16","internalType":"uint16"}],"stateMutability":"view"},{"type":"function","name":"unpause","inputs":[],"outputs":[],"stateMutability":"nonpayable"},{"type":"function","name":"winnerBps","inputs":[],"outputs":[{"name":"","type":"uint16","internalType":"uint16"}],"stateMutability":"view"},{"type":"function","name":"withdrawRefund","inputs":[],"outputs":[],"stateMutability":"nonpayable"},{"type":"event","name":"AgentJoinedQueue","inputs":[{"name":"matchId","type":"uint256","indexed":true,"internalType":"uint256"},{"name":"agent","type":"address","indexed":true,"internalType":"address"},{"name":"playerCount","type":"uint256","indexed":false,"internalType":"uint256"},{"name":"poolTotal","type":"uint256","indexed":false,"internalType":"uint256"}],"anonymous":false},{"type":"event","name":"AnswerPeriodStarted","inputs":[{"name":"matchId","type":"uint256","indexed":true,"internalType":"uint256"},{"name":"startTime","type":"uint256","indexed":false,"internalType":"uint256"},{"name":"deadline","type":"uint256","indexed":false,"internalType":"uint256"}],"anonymous":false},{"type":"event","name":"AnswerRevealed","inputs":[{"name":"matchId","type":"uint256","indexed":true,"internalType":"uint256"},{"name":"answer","type":"string","indexed":false,"internalType":"string"},{"name":"salt","type":"bytes32","indexed":false,"internalType":"bytes32"}],"anonymous":false},{"type":"event","name":"AnswerSubmitted","inputs":[{"name":"matchId","type":"uint256","indexed":true,"internalType":"uint256"},{"name":"agent","type":"address","indexed":true,"internalType":"address"},{"name":"answer","type":"string","indexed":false,"internalType":"string"},{"name":"attemptNumber","type":"uint256","indexed":false,"internalType":"uint256"},{"name":"neuronBurned","type":"uint256","indexed":false,"internalType":"uint256"}],"anonymous":false},{"type":"event","name":"BurnAllocationClaimed","inputs":[{"name":"operator","type":"address","indexed":true,"internalType":"address"},{"name":"winner","type":"address","indexed":true,"internalType":"address"},{"name":"amount","type":"uint256","indexed":false,"internalType":"uint256"}],"anonymous":false},{"type":"event","name":"MatchCancelled","inputs":[{"name":"matchId","type":"uint256","indexed":true,"internalType":"uint256"}],"anonymous":false},{"type":"event","name":"MatchCreated","inputs":[{"name":"matchId","type":"uint256","indexed":true,"internalType":"uint256"},{"name":"entryFee","type":"uint256","indexed":false,"internalType":"uint256"},{"name":"baseAnswerFee","type":"uint256","indexed":false,"internalType":"uint256"},{"name":"queueDeadline","type":"uint64","indexed":false,"internalType":"uint64"},{"name":"minPlayers","type":"uint8","indexed":false,"internalType":"uint8"},{"name":"maxPlayers","type":"uint8","indexed":false,"internalType":"uint8"}],"anonymous":false},{"type":"event","name":"MatchRefunded","inputs":[{"name":"matchId","type":"uint256","indexed":true,"internalType":"uint256"},{"name":"playerCount","type":"uint256","indexed":false,"internalType":"uint256"},{"name":"refundPerPlayer","type":"uint256","indexed":false,"internalType":"uint256"}],"anonymous":false},{"type":"event","name":"MatchSettled","inputs":[{"name":"matchId","type":"uint256","indexed":true,"internalType":"uint256"},{"name":"winner","type":"address","indexed":true,"internalType":"address"},{"name":"winnerPrize","type":"uint256","indexed":false,"internalType":"uint256"},{"name":"treasuryFee","type":"uint256","indexed":false,"internalType":"uint256"},{"name":"burnAllocationAmount","type":"uint256","indexed":false,"internalType":"uint256"}],"anonymous":false},{"type":"event","name":"MatchStarted","inputs":[{"name":"matchId","type":"uint256","indexed":true,"internalType":"uint256"},{"name":"playerCount","type":"uint256","indexed":false,"internalType":"uint256"},{"name":"pool","type":"uint256","indexed":false,"internalType":"uint256"}],"anonymous":false},{"type":"event","name":"NeuronBurned","inputs":[{"name":"matchId","type":"uint256","indexed":true,"internalType":"uint256"},{"name":"agent","type":"address","indexed":true,"internalType":"address"},{"name":"amount","type":"uint256","indexed":false,"internalType":"uint256"}],"anonymous":false},{"type":"event","name":"OperatorAdded","inputs":[{"name":"operator","type":"address","indexed":true,"internalType":"address"}],"anonymous":false},{"type":"event","name":"OperatorRemoved","inputs":[{"name":"operator","type":"address","indexed":true,"internalType":"address"}],"anonymous":false},{"type":"event","name":"OwnershipTransferred","inputs":[{"name":"previousOwner","type":"address","indexed":true,"internalType":"address"},{"name":"newOwner","type":"address","indexed":true,"internalType":"address"}],"anonymous":false},{"type":"event","name":"Paused","inputs":[{"name":"account","type":"address","indexed":false,"internalType":"address"}],"anonymous":false},{"type":"event","name":"QuestionRevealed","inputs":[{"name":"matchId","type":"uint256","indexed":true,"internalType":"uint256"},{"name":"question","type":"string","indexed":false,"internalType":"string"},{"name":"category","type":"string","indexed":false,"internalType":"string"},{"name":"difficulty","type":"uint8","indexed":false,"internalType":"uint8"},{"name":"formatHint","type":"string","indexed":false,"internalType":"string"},{"name":"answerHash","type":"bytes32","indexed":false,"internalType":"bytes32"}],"anonymous":false},{"type":"event","name":"RefundCredited","inputs":[{"name":"matchId","type":"uint256","indexed":true,"internalType":"uint256"},{"name":"player","type":"address","indexed":true,"internalType":"address"},{"name":"amount","type":"uint256","indexed":false,"internalType":"uint256"}],"anonymous":false},{"type":"event","name":"RefundWithdrawn","inputs":[{"name":"player","type":"address","indexed":true,"internalType":"address"},{"name":"amount","type":"uint256","indexed":false,"internalType":"uint256"}],"anonymous":false},{"type":"event","name":"SplitUpdated","inputs":[{"name":"winnerBps","type":"uint16","indexed":false,"internalType":"uint16"},{"name":"treasuryBps","type":"uint16","indexed":false,"internalType":"uint16"},{"name":"burnBps","type":"uint16","indexed":false,"internalType":"uint16"}],"anonymous":false},{"type":"event","name":"TreasuryUpdated","inputs":[{"name":"oldTreasury","type":"address","indexed":true,"internalType":"address"},{"name":"newTreasury","type":"address","indexed":true,"internalType":"address"}],"anonymous":false},{"type":"event","name":"Unpaused","inputs":[{"name":"account","type":"address","indexed":false,"internalType":"address"}],"anonymous":false},{"type":"error","name":"AlreadyInMatch","inputs":[{"name":"matchId","type":"uint256","internalType":"uint256"},{"name":"player","type":"address","internalType":"address"}]},{"type":"error","name":"AnswerDeadlineNotPassed","inputs":[{"name":"matchId","type":"uint256","internalType":"uint256"}]},{"type":"error","name":"AnswerDeadlinePassed","inputs":[{"name":"matchId","type":"uint256","internalType":"uint256"}]},{"type":"error","name":"EnforcedPause","inputs":[]},{"type":"error","name":"ExpectedPause","inputs":[]},{"type":"error","name":"InsufficientEntryFee","inputs":[{"name":"required","type":"uint256","internalType":"uint256"},{"name":"provided","type":"uint256","internalType":"uint256"}]},{"type":"error","name":"InvalidAnswerHash","inputs":[]},{"type":"error","name":"InvalidParameters","inputs":[]},{"type":"error","name":"InvalidPhase","inputs":[{"name":"expected","type":"uint8","internalType":"enum AxonArena.MatchPhase"},{"name":"actual","type":"uint8","internalType":"enum AxonArena.MatchPhase"}]},{"type":"error","name":"InvalidSplit","inputs":[]},{"type":"error","name":"MatchFull","inputs":[{"name":"matchId","type":"uint256","internalType":"uint256"}]},{"type":"error","name":"MatchNotFound","inputs":[{"name":"matchId","type":"uint256","internalType":"uint256"}]},{"type":"error","name":"NoBurnAllocation","inputs":[]},{"type":"error","name":"NoPendingRefund","inputs":[]},{"type":"error","name":"NotEnoughPlayers","inputs":[{"name":"required","type":"uint256","internalType":"uint256"},{"name":"actual","type":"uint256","internalType":"uint256"}]},{"type":"error","name":"NotInMatch","inputs":[{"name":"matchId","type":"uint256","internalType":"uint256"},{"name":"player","type":"address","internalType":"address"}]},{"type":"error","name":"NotOperator","inputs":[]},{"type":"error","name":"OwnableInvalidOwner","inputs":[{"name":"owner","type":"address","internalType":"address"}]},{"type":"error","name":"OwnableUnauthorizedAccount","inputs":[{"name":"account","type":"address","internalType":"address"}]},{"type":"error","name":"QueueDeadlineNotPassed","inputs":[{"name":"matchId","type":"uint256","internalType":"uint256"}]},{"type":"error","name":"QueueDeadlinePassed","inputs":[{"name":"matchId","type":"uint256","internalType":"uint256"}]},{"type":"error","name":"ReentrancyGuardReentrantCall","inputs":[]},{"type":"error","name":"ZeroAddress","inputs":[]}],"bytecode":{"object":"0x60a034620001cf57601f6200302038819003918201601f1916830191906001600160401b03831184841017620001d3578160609285926040958652833981010312620001cf576200005082620001e7565b906200006c816200006460208601620001e7565b9401620001e7565b903315620001b9575f8054336001600160a01b03198083168217845584519793969095909390926001600160a01b03929083167f8be0079c531659141344cd1fd0a4f28419497f9722a3daafe3b4186f6b6457e08980a381600194857f9b779b17422d0df92223018b32b4d1fa46e071723d6817e2486d003becc55f005516978815620001aa5750811691821562000199571693841562000188577fac6fa858e9350a46cec16539926e0fde25b7629f84b5a72bffaae4df888ae86d94959660805282541617815583855260026020528185208160ff1982541617905580600355643e803e846560a31b65ffffffffffff60a01b19825416179055519280a2612e239081620001fd82396080518181816112cc01526125e80152f35b835163d92e233d60e01b8152600490fd5b845163d92e233d60e01b8152600490fd5b63d92e233d60e01b8152600490fd5b51631e4fbdf760e01b81525f6004820152602490fd5b5f80fd5b634e487b7160e01b5f52604160045260245ffd5b51906001600160a01b0382168203620001cf5756fe60806040526004361015610011575f80fd5b5f803560e01c806301fa3bec146125005780630352226b1461249d5780631043f1a914612453578063105c4c4914612249578063110f88741461216257806313e7c9d814611ea25780633a1682b11461211d5780633f4ba83a146120ac5780634dc10ea11461208757806353deb3d6146120625780635c975abb1461203d57806361d027b314612014578063652cda8314611f5e5780636bf869ab14611ee15780636d70f7ae14611ea25780636defd22614611dbc578063715018a614611d6357806373b4c17614611a8257806379fa454c146119c25780637c8efdb8146118c45780637d1e64431461138657806383d9dae11461135c5780638456cb59146112fb57806389420f31146112b65780638da5cb5b1461128f57806391ee1e8a146110125780639694942014610db55780639870d7fe14610d32578063a271d02f14610c50578063ab1205e914610c26578063ac4386f114610baa578063ac8a584a14610b1d578063b2a679d714610a6b578063b613b11414610a32578063b7a7e1bc146109c5578063bc551661146109a0578063bf725a8414610876578063c1661db114610833578063c5adf7c914610815578063c7b13251146107dc578063ce60d59614610789578063d02c8cdf146106ac578063d5198a711461043c578063f0f44260146103b4578063f2fde38b146103275763f770112714610214575f80fd5b34610324576020806003193601126103205761022e612826565b3383526002825260ff6040842054161561030e5761024a612b33565b6001600160a01b0316808352600b82526040832054909181156102fc57828452600b81528360408120558380808085335af1610284612b04565b50156102c9577f1e16cdb7cdbff37728c2267a8c56fba61c703a633fade059f82c6251670ad4bf906040519283523392a360015f80516020612dce8339815191525580f35b6064906040519062461bcd60e51b82526004820152600c60248201526b10db185a5b4819985a5b195960a21b6044820152fd5b60405163116cfe0b60e11b8152600490fd5b604051631f0853c160e21b8152600490fd5b5080fd5b80fd5b503461032457602036600319011261032457610341612826565b6103496129f4565b6001600160a01b0390811690811561039b575f54826bffffffffffffffffffffffff60a01b8216175f55167f8be0079c531659141344cd1fd0a4f28419497f9722a3daafe3b4186f6b6457e05f80a380f35b604051631e4fbdf760e01b815260048101849052602490fd5b5034610324576020366003190112610324576103ce612826565b6103d66129f4565b6001600160a01b0390811690811561042a57600154826bffffffffffffffffffffffff60a01b821617600155167f4ab5be82436d353e61ca18726e984e561f5c1cc7c6d38b29d2553c790434705a8380a380f35b60405163d92e233d60e01b8152600490fd5b5034610324576060366003190112610324576001600160401b03906004356024358381116106a8576104729036906004016127e3565b6044353385526020906002825260ff6040872054161561030e578415801561069c575b6106835784865260058252604086209660019760ff8982015460401c16600581101561066f57600381141580610664575b61063d5750600260405185810190878983376104f36040828a8101898b8201520389810184520182612909565b5190209101540361062b57858752600d835260408720908411610617576105248461051e8354612887565b83612b98565b8697601f851160011461059b57848091899a7f5dbe0c8cd61c94a540f524d0542ebb9bde751a2a4aff85b0bebf813717847da5999a93610590575b501b905f198660031b1c19161790555b610586604051948594604086526040860191612beb565b918301520390a280f35b88013592505f61055f565b818852838820601f19861699895b8b81106106025750867f5dbe0c8cd61c94a540f524d0542ebb9bde751a2a4aff85b0bebf813717847da5999a9b106105e9575b505084811b01905561056f565b8701355f19600388901b60f8161c191690555f806105dc565b888201358355918301919086019086016105a9565b634e487b7160e01b87526041600452602487fd5b604051634217f0fb60e01b8152600490fd5b60405163098d23bb60e41b81526003600482015260449161066290602483019061283c565bfd5b5060048114156104c6565b634e487b7160e01b89526021600452602489fd5b604051632200058160e21b815260048101869052602490fd5b50600354851015610495565b8280fd5b503461032457602036600319011261032457600435338252600260205260ff6040832054161561030e578015801561077d575b61076557808252600560205260ff600160408420015460401c166005811015610751578061072d575061071990610714612b33565b612c75565b60015f80516020612dce8339815191525580f35b60405163098d23bb60e41b81525f600482015260449161066290602483019061283c565b634e487b7160e01b83526021600452602483fd5b60249060405190632200058160e21b82526004820152fd5b506003548110156106df565b5034610324576040366003190112610324576024359060043581526007602052604081209081548310156103245760206107c384846129cb565b905460405160039290921b1c6001600160a01b03168152f35b5034610324576020366003190112610324576020906040906001600160a01b03610804612826565b168152600b83522054604051908152f35b50346103245780600319360112610324576020600354604051908152f35b50346103245760203660031901126103245761085e6040610872926004358152600d6020522061292a565b604051918291602083526020830190612849565b0390f35b50346103245760208060031936011261032057600435903383526002815260ff6040842054161561030e5781158015610994575b61097b578183526005815260ff600160408520015460401c166005811015610967578061072d575081835260048152604083209060058152604084206007825260ff6002604087205494015460801c16808410610949575060018101805460ff60401b1916600160401b1790555460408051938452918301527f5b6e4e18118c40f775930c64a8a88c772412d66791ca6110a4f3e8fa43638c1e91a280f35b604490846040519163d5651a4160e01b835260048301526024820152fd5b634e487b7160e01b84526021600452602484fd5b604051632200058160e21b815260048101839052602490fd5b506003548210156108aa565b5034610324578060031936011261032457602061ffff60015460a01c16604051908152f35b503461032457602036600319011261032457604060c091600435815260046020522060ff815491600260018201549101549060405193845260208401526001600160401b0380821660408501528160401c166060840152818160801c16608084015260881c1660a0820152f35b5034610324576020366003190112610324576020906040906001600160a01b03610a5a612826565b168152600c83522054604051908152f35b503461032457602080600319360112610320576004358252600781526040822060405192838383549182815201908193835284832090835b818110610b005750505084610ab9910385612909565b60405193838594850191818652518092526040850193925b828110610ae057505050500390f35b83516001600160a01b031685528695509381019392810192600101610ad1565b82546001600160a01b031684529286019260019283019201610aa3565b503461032457602036600319011261032457610b37612826565b610b3f6129f4565b6001600160a01b03168082526002602052604082205460ff1615610b9857808252600260205260408220805460ff191690557f80c0b871b97b595b16a7741c1b06fed0c6f6f558639f18ccbce50724325dc40d8280a280f35b604051630e52390960e41b8152600490fd5b5034610324576020366003190112610324576040610c0a916004358152600660205220610872610bd98261292a565b91610c18610bf56002610bee6001850161292a565b930161292a565b91604051958695606087526060870190612849565b908582036020870152612849565b908382036040850152612849565b50346103245760203660031901126103245760406020916004358152600783522054604051908152f35b503461032457602036600319011261032457604090610c6d612a82565b506004358152600560205220604051610c85816128bf565b81548152600182015460208201906001600160401b0393848216835260ff8260401c169460408501906005871015610d1e57610d088260c09860ff94526060880192848760481c168452600260808a019660018060a01b03809960501c16885201549760a08a0198895260405199518a525116602089015251604088019061283c565b51166060850152511660808301525160a0820152f35b634e487b7160e01b5f52602160045260245ffd5b503461032457602036600319011261032457610d4c612826565b610d546129f4565b6001600160a01b0316801561042a57808252600260205260ff604083205416610b9857808252600260205260408220805460ff191660011790557fac6fa858e9350a46cec16539926e0fde25b7629f84b5a72bffaae4df888ae86d8280a280f35b5060208060031936011261032057600435610dce612a40565b80158015611006575b610765578083526005825260ff600160408520015460401c166005811015610967578061072d5750610e07612b33565b80835260048252604083209160058152604084209260028101546001600160401b0381164211610fed578386526008835260408620335f52835260ff60405f205416610fce578386526007835260ff60408720549160881c161115610fb5578054803410610f9757508285526007825260408520805490600160401b8210156106175781610e9c9160018995940181556129cb565b81549060031b9033821b9160018060a01b03901b19161790558382526008835260408220335f52835260405f20600160ff19825416179055610ee081548654612a1f565b855554803411610f3e575b508290526007815260408420549254906040519384528301527fa610faa08fb07662a492ffbcd11e0d3cb0a4cf188a90bb246ac95d07444480b560403393a360015f80516020612dce8339815191525580f35b8180610f4b819334612adc565b335af1610f56612b04565b5015610f6357835f610eeb565b6064906040519062461bcd60e51b82526004820152600d60248201526c1499599d5b990819985a5b1959609a1b6044820152fd5b60449060405190631898459360e21b82526004820152346024820152fd5b604051635f9d99f960e01b815260048101849052602490fd5b6040516390ff1fb160e01b815260048101859052336024820152604490fd5b60405163806dedcd60e01b815260048101859052602490fd5b50600354811015610dd7565b50346103245760403660031901126103245760043561102f612810565b903383526020916002835260ff6040852054161561030e5781158015611283575b61097b578184526005835260ff600160408620015460401c16600581101561126f576002810361124a5750611083612b33565b6001600160a01b0381811693909190841561042a578386526008815260408620855f52815260ff60405f2054161561121f57906110ef9291848752600581526040872092835492611136600161110b8154966111066127106110fd8161ffff9d8e8d60a01c1686612a6f565b049c8d9b60b01c1684612a6f565b04988992612adc565b612adc565b96018054600160501b600160f01b03191660509390931b600160501b600160f01b0316929092178255565b6803000000000000000060ff60401b19825416179055868852600b825260408820611162858254612a1f565b905587808080888b5af1611174612b04565b50156111e15791606093916111be89808080867f75e2cdfe1f471809c44494c67c6ea8a7740906853f2bdb774ecdbb39f5ce08129b99600154165af16111b8612b04565b50612c29565b6040519384528301526040820152a360015f80516020612dce8339815191525580f35b60405162461bcd60e51b815260048101839052601660248201527515da5b9b995c881d1c985b9cd9995c8819985a5b195960521b6044820152606490fd5b50604051635c6d0ed160e01b8152600481018490526001600160a01b03919091166024820152604490fd5b60405163098d23bb60e41b81526002600482015260449161066290602483019061283c565b634e487b7160e01b85526021600452602485fd5b50600354821015611050565b5034610324578060031936011261032457546040516001600160a01b039091168152602090f35b50346103245780600319360112610324576040517f00000000000000000000000000000000000000000000000000000000000000006001600160a01b03168152602090f35b50346103245780600319360112610324576113146129f4565b61131c612a40565b805460ff60a01b1916600160a01b1781556040513381527f62e78cea01bee320cd4e420270b5ea74000d11b0c9f74754ebdbfc544b05a25890602090a180f35b50346103245760203660031901126103245760406020916004358152600a83522054604051908152f35b50346103245760c0366003190112610324576024356001600160401b038111610320576113b79036906004016127e3565b906044356001600160401b0381116118c0576113d79036906004016127e3565b9060ff60643516606435036118bc576084356001600160401b0381116118b8576114059036906004016127e3565b929093338752600260205260ff6040882054161561030e576004351580156118aa575b611891576004358752600560205260ff600160408920015460401c16600581101561187d5760018103611858575060a4351561062b5760ff60643516158015611849575b610b9857600435875260056020526040872060405161148a816128ee565b611495368985612b62565b81526114a2368587612b62565b60208201526114b2368789612b62565b604082015260043589526006602052604089209080518051906001600160401b0382116117c25781906114ef826114e98754612887565b87612b98565b602090601f83116001146117e1578d926117d6575b50508160011b915f199060031b1c19161782555b60208101519081516001600160401b0381116117c2576115488161153f6001870154612887565b60018701612b98565b6020928c601f831160011461175057604094909183611745575b50508160011b915f199060031b1c19161760018401555b01518051906001600160401b038211611731576115a68261159d6002860154612887565b60028601612b98565b6020908b601f841160011461168f5794611670999794600285611649966116579a967f96070181452dd5c5e429379894f1d0c15047aea5212d056287247678448e1dbb9f9d9a966116379792611684575b50508160011b915f199060031b1c1916179101555b60a4356002820155600101805469ff000000000000000000191660643560481b60ff60481b16179055565b6040519960a08b5260a08b0191612beb565b9188830360208a0152612beb565b9160ff6064351660408701528583036060870152612beb565b9160a435608082015280600435930390a280f35b015190505f806115f7565b5090600284018c5260208c20918c5b601f198516811061171957509461167099979460026001866116579a967f96070181452dd5c5e429379894f1d0c15047aea5212d056287247678448e1dbb9f9d9a96611637976116499a601f19811610611701575b505050811b0191015561160c565b01515f1960f88460031b161c191690555f80806116f3565b9192602060018192868501518155019401920161169e565b634e487b7160e01b8b52604160045260248bfd5b015190505f80611562565b50909192600185018d5260208d20918d5b601f19851681106117aa575091839160019360409695601f19811610611792575b505050811b016001840155611579565b01515f1960f88460031b161c191690555f8080611782565b91926020600181928685015181550194019201611761565b634e487b7160e01b8c52604160045260248cfd5b015190505f80611504565b9250848d5260208d20908d935b601f198416851061182e576001945083601f19811610611816575b505050811b018255611518565b01515f1960f88460031b161c191690555f8080611809565b818101518355602094850194600190930192909101906117ee565b50600560ff606435161161146c565b60405163098d23bb60e41b81526001600482015260449161066290602483019061283c565b634e487b7160e01b88526021600452602488fd5b6024604051632200058160e21b81526004356004820152fd5b506003546004351015611428565b8580fd5b5f80fd5b8380fd5b50346103245760208060031936011261032057600435903383526002815260ff6040842054161561030e57811580156119b6575b61097b578183526005815260ff600160408520015460401c16600581101561096757600181036118585750818352600481526040832060058252604084209060028201541561062b577f3c096d410a3e2dbf0234b5d9a92f89620b5ed063e032eda6102310add836b7f4926040926001600160401b0390680200000000000000008260016119918260028142169901548a1c1688612ac1565b9301921668ffffffffffffffffff19835416171780915584519384521690820152a280f35b506003548210156118f8565b503461032457602080600319360112610320576108726040606093848280516119ea816128ee565b82815282878201520152600435815260068452209160405192611a0c846128ee565b611a158161292a565b8452611a71611a5b611a3b6002611a2e6001860161292a565b948689019586520161292a565b936040870194855260405197889782895251918801526080870190612849565b915191601f199283878303016040880152612849565b915190848303016060850152612849565b50346103245760c0366003190112610324576001600160401b036044351680604435036118bc57606435906001600160401b03821682036118bc576084359060ff821682036118bc5760a4359060ff821682036118bc57338552600260205260ff6040862054161561030e5760043515610b985760243515610b985715610b98576001600160401b03831615610b9857600260ff831610610b985760ff821660ff821610610b985760035492611b3784612ab3565b600355611b4f6044356001600160401b034216612ac1565b90604051611b5c816128bf565b6004358152602081019060243582526001600160401b0360408201941684526001600160401b0360608201931683526001600160401b036002608083019260ff8916845260a081019460ff891686528a8c52600460205260408c2091518255516001820155019451166fffffffffffffffff00000000000000008554945160401b169160ff60801b905160801b169260ff60881b905160881b169371ffffffffffffffffffffffffffffffffffff1916171717179055604051611c1e816128bf565b8481526020810190858252604081018681528660608301528660808301528660a083015285875260056020526001600160401b03604088209383518555511660018401549151600581101561066f576001600160401b036002604060209b60a098838a8e9d9a60ff9a7fa88e783d40f8a39494a41e99977d80e1a1f48e2b74be65b6a8226e88b8faf84f9e9a60ff60401b8d9b891b169168ffffffffffffffffff191617176001850155611cf089606083015116600186019060ff60481b82549160481b169060ff60481b1916179055565b608081015160018581018054600160501b600160f01b0319165f1992861b929092019290921660501b600160501b600160f01b031617905501519101558a815260048d5220015416936040519460043586526024358b8701526040860152166060840152166080820152a2604051908152f35b5034610324578060031936011261032457611d7c6129f4565b5f80546001600160a01b0319811682556001600160a01b03167f8be0079c531659141344cd1fd0a4f28419497f9722a3daafe3b4186f6b6457e08280a380f35b50346103245760603660031901126103245760043561ffff8082168083036118bc57602435928284168085036118bc57604435938416918285036118bc57611e026129f4565b612710611e1884611e138588612a1f565b612a1f565b03611e90577f4e12a8efb27cd27678c329447b46147e38d136682ae8fb37337fc1b2fad14fc5956060956001549061ffff60c01b9060c01b169261ffff60a01b9060a01b169065ffffffffffff60a01b1916179061ffff60b01b9060b01b16171760015560405192835260208301526040820152a180f35b60405163bcd55b0f60e01b8152600490fd5b50346103245760203660031901126103245760209060ff906040906001600160a01b03611ecd612826565b168152600284522054166040519015158152f35b503461032457602036600319011261032457604060c091600435815260056020522080549060026001820154910154906040519283526001600160401b0381166020840152611f396040840160ff8360401c1661283c565b604881901c60ff16606084015260501c6001600160a01b0316608083015260a0820152f35b503461032457602036600319011261032457604060c091611f7d612a82565b50600435815260046020522060ff60405191611f98836128bf565b8181549384815260026001840154936020830194855201549260408201906001600160401b03809281871681526060850192828860401c1684528660a06080880197828b60801c168952019860881c168852604051998a525160208a0152511660408801525116606086015251166080840152511660a0820152f35b50346103245780600319360112610324576001546040516001600160a01b039091168152602090f35b503461032457806003193601126103245760ff6020915460a01c166040519015158152f35b5034610324578060031936011261032457602061ffff60015460c01c16604051908152f35b5034610324578060031936011261032457602061ffff60015460b01c16604051908152f35b50346103245780600319360112610324576120c56129f4565b805460ff8160a01c161561210b5760ff60a01b191681556040513381527f5db9ee0a495bf2e6ff9c91a7834c1ba4fdd244a5e8aa4e537bd38aeae4b073aa90602090a180f35b604051638dfc202b60e01b8152600490fd5b5034610324576040366003190112610324576040612139612810565b9160043581526009602052209060018060a01b03165f52602052602060405f2054604051908152f35b503461032457806003193601126103245761217b612b33565b338152600c6020526040812054801561223757338252600c6020528160408120558180808084335af16121ac612b04565b50156121f2576040519081527f3d97f39b86d061200a7834082f5926e58ec10fd85a9d6930f497729d5e6cc35c60203392a260015f80516020612dce8339815191525580f35b60405162461bcd60e51b815260206004820152601860248201527f526566756e64207769746864726177616c206661696c656400000000000000006044820152606490fd5b604051631f61271360e31b8152600490fd5b50346103245760208060031936011261032057600435903383526002815260ff6040842054161561030e5781158015612447575b61097b578183526005815260ff600160408520015460401c166005811015610967576002810361124a57506122b0612b33565b81835260058152604083209060018201908154916001600160401b03831642111561242e5784865260078252604086209081549454908561230861271061230061ffff60015460b01c1686612a6f565b048094612adc565b811561242057600160421b9161231d91612c0b565b955b60ff60401b191617905586816123f9575b90505b84811061237f575050916040917f3871f31555d9c3c262cc50197e10773d20a607851226e99342d2006902854388938351928352820152a260015f80516020612dce8339815191525580f35b8061238d6123f492846129cb565b60018060a01b03809254600392831b1c168a52600c865260408a206123b3888254612a1f565b90556123bf83866129cb565b9054911b1c16877fe1872a97721553a4eba79b8a15644854ed8617ac50609d0893e90f8197a7213d86604051898152a3612ab3565b612333565b600154612419928291829182916001600160a01b03165af16111b8612b04565b5f86612330565b5050600160421b889561231f565b6040516364282df760e01b815260048101869052602490fd5b5060035482101561227d565b503461032457604036600319011261032457604061246f612810565b9160043581526008602052209060018060a01b03165f52602052602060ff60405f2054166040519015158152f35b5034610324576040366003190112610324576124f86020916124f260016040600435936124c8612810565b8582526009885282822090848060a01b03165f528752815f20549481526004875220015491612a60565b90612a6f565b604051908152f35b5034610324576040366003190112610324576001600160401b0390602460043581358481116118c0576125379036906004016127e3565b9094612541612a40565b821580156127d7575b6127c0578285526020936005855260ff600160408820015460401c1660058110156127ad57600281036127885750612580612b33565b83865260058552816001604088200154164211612772578386526008855260408620338752855260ff604087205416156127535783865260098552604086203387528552604086205490848752600486526125e560016040892001546124f284612a60565b927f00000000000000000000000000000000000000000000000000000000000000006001600160a01b0316803b1561274f579088809260446040518095819363079cc67960e41b83523360048401528a898401525af180156127445761271d575b50506001820180921161270b57506126e88697857f11dba50944af587f85e8f6bd41f55aa592fd8f065e8c9c3d9d1117584dbf1d8c969798526009885260408920335f5288528260405f2055868952600a8852604089206126a8858254612a1f565b9055604051848152877f7d8ab1b12c085317d400507130232ab3c237a33909a3db78c72d71a7e961f3868a3393a360405194606086526060860191612beb565b9583015260408201528033940390a360015f80516020612dce8339815191525580f35b634e487b7160e01b8752601160045286fd5b819892981161273157604052955f80612646565b634e487b7160e01b825260416004528782fd5b6040513d8b823e3d90fd5b8880fd5b604051635c6d0ed160e01b815260048101859052336024820152604490fd5b6040516350b4898d60e01b815260048101859052fd5b60405163098d23bb60e41b81526002600482015260449290916106629183019061283c565b50634e487b7160e01b8652602160045285fd5b505060405190632200058160e21b82526004820152fd5b5060035483101561254a565b9181601f840112156118bc578235916001600160401b0383116118bc57602083818601950101116118bc57565b602435906001600160a01b03821682036118bc57565b600435906001600160a01b03821682036118bc57565b906005821015610d1e5752565b91908251928382525f5b848110612873575050825f602080949584010152601f8019910116010190565b602081830181015184830182015201612853565b90600182811c921680156128b5575b60208310146128a157565b634e487b7160e01b5f52602260045260245ffd5b91607f1691612896565b60c081019081106001600160401b038211176128da57604052565b634e487b7160e01b5f52604160045260245ffd5b606081019081106001600160401b038211176128da57604052565b90601f801991011681019081106001600160401b038211176128da57604052565b9060405191825f82549261293d84612887565b9081845260019485811690815f146129a85750600114612968575b505061296692500383612909565b565b909391505f52602090815f20935f915b81831061299057505061296693508201015f80612958565b85548884018501529485019487945091830191612978565b91505061296694506020925060ff191682840152151560051b8201015f80612958565b80548210156129e0575f5260205f2001905f90565b634e487b7160e01b5f52603260045260245ffd5b5f546001600160a01b03163303612a0757565b60405163118cdaa760e01b8152336004820152602490fd5b91908201809211612a2c57565b634e487b7160e01b5f52601160045260245ffd5b60ff5f5460a01c16612a4e57565b60405163d93c066560e01b8152600490fd5b60ff8111612a2c576001901b90565b81810292918115918404141715612a2c57565b60405190612a8f826128bf565b8160a05f918281528260208201528260408201528260608201528260808201520152565b5f198114612a2c5760010190565b9190916001600160401b0380809416911601918211612a2c57565b91908203918211612a2c57565b6001600160401b0381116128da57601f01601f191660200190565b3d15612b2e573d90612b1582612ae9565b91612b236040519384612909565b82523d5f602084013e565b606090565b5f80516020612dce8339815191526002815414612b505760029055565b604051633ee5aeb560e01b8152600490fd5b929192612b6e82612ae9565b91612b7c6040519384612909565b8294818452818301116118bc578281602093845f960137010152565b90601f8111612ba657505050565b5f91825260208220906020601f850160051c83019410612be1575b601f0160051c01915b828110612bd657505050565b818155600101612bca565b9092508290612bc1565b908060209392818452848401375f828201840152601f01601f1916010190565b8115612c15570490565b634e487b7160e01b5f52601260045260245ffd5b15612c3057565b60405162461bcd60e51b815260206004820152601860248201527f5472656173757279207472616e73666572206661696c656400000000000000006044820152606490fd5b5f81815260206004815260409182812091600581526001600160401b03600285842094015416421115612db55784825260078152838220805493600181549101600160421b60ff60401b198254161790558415612d895784612cd691612c0b565b92805b858110612d115750508451938452508201527f3871f31555d9c3c262cc50197e10773d20a607851226e99342d20069028543889190a2565b80612d1f612d8492856129cb565b60018060a01b03809254600392831b1c168552600c8752898520612d44898254612a1f565b9055612d5083876129cb565b9054911b1c16897fe1872a97721553a4eba79b8a15644854ed8617ac50609d0893e90f8197a7213d878b518a8152a3612ab3565b612cd9565b5050507f700135b4fe8746e2d2c85a9baa43c62887740aebfeb3a439f71a083fe5d567599250809150a2565b8351630a4ffe6760e31b815260048101869052602490fdfe9b779b17422d0df92223018b32b4d1fa46e071723d6817e2486d003becc55f00a264697066735822122056573992ae61f3f6cb71aa353d240c33a25823fca5c61a549fc33602ce205e1764736f6c63430008140033","linkReferences":{}},"methodIdentifiers":{"addOperator(address)":"9870d7fe","answerAttempts(uint256,address)":"3a1682b1","burnAllocation(address)":"c7b13251","burnBps()":"53deb3d6","cancelMatch(uint256)":"d02c8cdf","claimBurnAllocationFor(address)":"f7701127","createMatch(uint256,uint256,uint64,uint64,uint8,uint8)":"73b4c176","getCurrentAnswerFee(uint256,address)":"0352226b","getMatchConfig(uint256)":"652cda83","getMatchPlayers(uint256)":"b2a679d7","getMatchQuestion(uint256)":"79fa454c","getMatchState(uint256)":"a271d02f","getPlayerCount(uint256)":"ab1205e9","isOperator(address)":"6d70f7ae","isPlayerInMatch(uint256,address)":"1043f1a9","joinQueue(uint256)":"96949420","matchBurnTotal(uint256)":"83d9dae1","matchConfigs(uint256)":"b7a7e1bc","matchPlayers(uint256,uint256)":"ce60d596","matchQuestions(uint256)":"ac4386f1","matchStates(uint256)":"6bf869ab","neuronToken()":"89420f31","nextMatchId()":"c5adf7c9","operators(address)":"13e7c9d8","owner()":"8da5cb5b","pause()":"8456cb59","paused()":"5c975abb","pendingRefunds(address)":"b613b114","postQuestion(uint256,string,string,uint8,string,bytes32)":"7d1e6443","refundMatch(uint256)":"105c4c49","removeOperator(address)":"ac8a584a","renounceOwnership()":"715018a6","revealAnswer(uint256,string,bytes32)":"d5198a71","revealedAnswers(uint256)":"c1661db1","setSplit(uint16,uint16,uint16)":"6defd226","setTreasury(address)":"f0f44260","settleWinner(uint256,address)":"91ee1e8a","startAnswerPeriod(uint256)":"7c8efdb8","startMatch(uint256)":"bf725a84","submitAnswer(uint256,string)":"01fa3bec","transferOwnership(address)":"f2fde38b","treasury()":"61d027b3","treasuryBps()":"4dc10ea1","unpause()":"3f4ba83a","winnerBps()":"bc551661","withdrawRefund()":"110f8874"},"id":29}